:020000040800F2
:100000000000022091A20008272D0008292D0008D9
:100010002B2D00082D2D00082F2D000800000000BA
:10002000000000000000000000000000312D00086A
:10003000332D000800000000352D0008372D000882
:10004000E1A20008E1A20008E1A20008E1A2000884
:10005000E1A20008E1A20008E1A20008E1A2000874
:10006000E1A20008E1A20008E1A20008E1A2000864
:10007000E1A20008412D0008512D0008612D000863
:10008000E1A20008E1A20008712D0008E1A2000829
:10009000E1A20008E1A20008E1A20008E1A2000834
:1000A000E1A20008892D0008E1A20008E1A20008F1
:1000B000E1A20008E1A20008E1A20008E1A2000814
:1000C000E1A20008E1A20008E1A20008E1A2000804
:1000D000E1A20008E1A20008E1A20008E1A20008F4
:1000E000E1A20008E1A2000800000000E1A200086F
:1000F000E1A20008E1A20008E1A20008E1A20008D4
:10010000E1A20008E1A20008E1A20008E1A20008C3
:10011000E1A20008E1A20008E1A20008E1A20008B3
:10012000E1A20008E1A20008E1A20008E1A20008A3
:10013000E1A20008E1A20008E1A20008E1A2000893
:1001400000000000000000000000000000000000AF
:10015000E1A20008E1A20008E1A20008E1A2000873
:10016000E1A20008E1A20008E1A20008E1A2000863
:10017000E1A20008E1A20008E1A2000800000000DE
:10018000E1A20008E1A20008E1A20008E1A2000843
:10019000E1A20008E1A20008E1A20008E1A2000833
:1001A000E1A20008E1A20008E1A20008E1A2000823
:1001B000E1A20008E1A20008E1A20008E1A2000813
:1001C000E1A20008E1A20008E1A20008E1A2000803
:1001D000E1A20008E1A20008E1A20008E1A20008F3
:1001E000E1A20008E1A20008E1A20008E1A20008E3
:1001F000E1A20008E1A20008E1A20008E1A20008D3
:10020000E1A20008E1A20008E1A20008E1A20008C2
:10021000E1A20008E1A20008E1A20008E1A20008B2
:10022000E1A20008E1A20008E1A20008000000002D
:10023000E1A20008E1A2000800000000E1A200081D
:10024000E1A20008E1A20008E1A20008E1A2000882
:10025000E1A20008E1A20008E1A20008E1A2000872
:10026000E1A20008E1A20008E1A20008E1A2000862
:10027000E1A20008E1A20008E1A2000800000000DD
:10028000E1A20008E1A20008E1A2000800000000CD
:0802900000000000E1A20008DB
:1002980010B5054C237833B9044B13B10448AFF3B8
:1002A80000800123237010BD100000200000000012
:1002B8003CA3000808B5034B1BB103490348AFF33F
:1002C800008008BD00000000140000203CA30008C6
:1002D80053B94AB9002908BF00281CBF4FF0FF31A5
:1002E8004FF0FF3000F074B9ADF1080C6DE904CEA1
:1002F80000F006F8DDF804E0DDE9022304B07047F9
:100308002DE9F047089D04468E46002B4DD18A42C0
:10031800944669D9B2FA82F252B101FA02F3C2F1F3
:10032800200120FA01F10CFA02FC41EA030E944084
:100338004FEA1C48210CBEFBF8F61FFA8CF708FBA5
:1003480016E341EA034306FB07F199420AD91CEB7D
:10035800030306F1FF3080F01F81994240F21C81AF
:10036800023E63445B1AA4B2B3FBF8F008FB1033F7
:1003780044EA034400FB07F7A7420AD91CEB04042C
:1003880000F1FF3380F00A81A74240F207816444FC
:10039800023840EA0640E41B00261DB1D440002381
:1003A800C5E900433146BDE8F0878B4209D9002DE5
:1003B80000F0EF800026C5E9000130463146BDE86F
:1003C800F087B3FA83F6002E4AD18B4202D38242D9
:1003D80000F2F980841A61EB030301209E46002D88
:1003E800E0D0C5E9004EDDE702B9FFDEB2FA82F2DD
:1003F800002A40F09280A1EB0C014FEA1C471FFA3B
:100408008CFE0126200CB1FBF7F307FB131140EA21
:1004180001410EFB03F0884208D91CEB010103F1EE
:10042800FF3802D2884200F2CB804346091AA4B2B0
:10043800B1FBF7F007FB101144EA01440EFB00FE84
:10044800A64508D91CEB040400F1FF3102D2A645E9
:1004580000F2BB800846A4EB0E0440EA03409CE788
:10046800C6F12007B34022FA07FC4CEA030C20FA35
:1004780007F401FA06F31C43F9404FEA1C4900FA55
:1004880006F3B1FBF9F8200C1FFA8CFE09FB1811D2
:1004980040EA014108FB0EF0884202FA06F20BD945
:1004A8001CEB010108F1FF3A80F08880884240F295
:1004B8008580A8F102086144091AA4B2B1FBF9F0D9
:1004C80009FB101144EA014100FB0EFE8E4508D9D4
:1004D8001CEB010100F1FF346CD28E456AD9023859
:1004E800614440EA0840A0FB0294A1EB0E01A1423E
:1004F800C846A64656D353D05DB1B3EB080261EBAC
:100508000E0101FA07F722FA06F3F1401F43C5E985
:10051800007100263146BDE8F087C2F12003D840BB
:100528000CFA02FC21FA03F3914001434FEA1C47FD
:100538001FFA8CFEB3FBF7F007FB10360B0C43EAEF
:10054800064300FB0EF69E4204FA02F408D91CEB9F
:10055800030300F1FF382FD29E422DD9023863449D
:100568009B1B89B2B3FBF7F607FB163341EA03413D
:1005780006FB0EF38B4208D91CEB010106F1FF388C
:1005880016D28B4214D9023E6144C91A46EA004683
:1005980038E72E46284605E70646E3E61846F8E615
:1005A8004B45A9D2B9EB020864EB0C0E0138A3E75E
:1005B8004646EAE7204694E74046D1E7D0467BE73F
:1005C800023B614432E7304609E76444023842E7B7
:1005D800704700BF72B6FEE700B59DB04C220021FF
:1005E80009A809F09FFE2022002101A809F09AFE1F
:1005F800022006F0C1FC002300932B4BDA6A22F09C
:100608000102DA62DB6A03F001030093274A936967
:1006180023F4404343F480439361936903F44043D4
:100628000093009B214B9B6913F4005FFAD0204A8A
:10063800936A23F0030343F0020393622923099387
:100648004FF480330A9301220E920F9202231293E1
:1006580013931492092215921693179318930C2248
:1006680019921A934FF440631B9309A803F022FAD6
:10067800A8B93F2301930323029300230393049310
:100688004023059306934FF4806207920893012153
:1006980001A803F063FE20B91DB05DF804FBFFF765
:1006A80099FFFFF797FF00BF000400580048025861
:1006B8000044025810B5B0B0C02422460021684654
:1006C80009F030FE4FF400220023CDE90023012376
:1006D80002930923039304230493022305930693A7
:1006E8000794202308934FF440630993684604F065
:1006F800D1F808B930B010BDFFF76CFF08B54B4B07
:100708005B6913F4003F13D1BFF34F8FBFF36F8FB3
:10071800464B0022C3F85022BFF34F8FBFF36F8FB1
:100728005A6942F400325A61BFF34F8FBFF36F8F9B
:100738003E4B5B6913F4803F27D13C4B0022C3F842
:100748008420BFF34F8FD3F88040C4F34E3000E0CD
:100758001846C4F3C90243F6E07303EA401343EAB8
:1007680082733249C1F860321346013A002BF2D144
:10077800431E0028ECD1BFF34F8F4B6943F48033FD
:100788004B61BFF34F8FBFF36F8F06F0B1FCFFF7DC
:1007980023FFFFF78FFF00F04BF800F05DFC00F03F
:1007A8008BF900F0DDF900F021FA00F0A9FB00F068
:1007B80003FD00F0DFFD00F09FFE00F0C9FE00F031
:1007C800F3FE00F0F5FF01F029F801F05BF801F005
:1007D8008DF801F0BFF801F0F1F801F00BFB01F022
:1007E8004BFB01F075FB01F09FFB01F0C9FB01F029
:1007F8003BFD02F0B5F902F017FA01F071FD01F0C6
:10080800C3FD01F0F3FD01F019FE01F03FFE01F018
:1008180071FE01F0BDFE02F047FA01F0D1FE01F0D1
:100828000DFF01F023FF02F079FAFEE700ED00E08A
:100838002DE9F04F91B000240B940C940D940E9474
:100848000F94934BD3F8E02042F48072C3F8E02071
:10085800D3F8E02002F480720092009AD3F8E020E6
:1008680042F48062C3F8E020D3F8E02002F480620A
:100878000192019AD3F8E02042F04002C3F8E02048
:10088800D3F8E02002F040020292029AD3F8E02066
:1008980042F00802C3F8E020D3F8E02002F0080292
:1008A8000392039AD3F8E02042F00102C3F8E02053
:1008B800D3F8E02002F001020492049AD3F8E02071
:1008C80042F01002C3F8E020D3F8E02002F0100252
:1008D8000592059AD3F8E02042F00202C3F8E0201E
:1008E800D3F8E02002F002020692069AD3F8E0203C
:1008F80042F40072C3F8E020D3F8E02002F400725A
:100908000792079AD3F8E02042F08002C3F8E0206B
:10091800D3F8E02002F080020892089AD3F8E02089
:1009280042F00402C3F8E020D3F8E02002F0040209
:100938000992099AD3F8E02042F02002C3F8E02097
:10094800D3F8E03003F020030A930A9B514E224665
:100958004FF29051304605F061FCDFF850B1224665
:10096800FC21584605F05AFCDFF844A1224640F61F
:100978000801504605F052FCDFF8389122464FF442
:100988000041484605F04AFC22460421424805F049
:1009980045FC424F224647F2FF01384605F03EFC2F
:1009A800224608213E4805F039FC4FF290530B933C
:1009B80001250C950D940E940BA9304605F01EFBED
:1009C800FC230B930C950D940E940BA9584605F037
:1009D80015FB4FF4004BCDF82CB04FF48818CDF828
:1009E80030800D940BA9384605F008FB40F6080343
:1009F8000B930C950D940E940BA9504605F0FEFA36
:100A0800CDF82CB00C950D940E940BA9484605F022
:100A1800F5FA04230B930C950D940E940BA91E481C
:100A280005F0ECFA47F2FF030B930C950D940E9426
:100A38000BA9384605F0E2FA4FF4E0530B93022372
:100A48000C930D940E940A230F930BA9154805F0E7
:100A5800D5FA4FF400530B930C940D950BA912483B
:100A680005F0CCFA4FF400630B93CDF830800D9469
:100A78000BA9304605F0C2FA08230B930C950D9488
:100A88000E940BA9064805F0B9FA11B0BDE8F08F2D
:100A9800004402580020025800100258002402584E
:100AA800001802580000025800080258002802588E
:100AB800000C0258001C025800B58BB000230793A5
:100AC8000893099300930193029303930493059366
:100AD80006932048204A026043608360C360042272
:100AE8000261037543750122826103774FF4A461A3
:100AF80041624FF480618162C2620363436380F89C
:100B0800383002F0EDFDE0B90023079307A911483A
:100B180002F01EFFC0B9114B009306230193002376
:100B2800029340F2FF7203920422049205938DF817
:100B380019306946074802F0ADFA40B90BB05DF8C4
:100B480004FBFFF747FDDFE7FFF744FDE3E7FFF7A7
:100B580041FDF3E73000002000200240020030048D
:100B680000B589B00023019302930393049305937E
:100B78000693079319481A4A026043608360C3606A
:100B8800042202610375437501228261037743627F
:100B98008362C3620363436380F8383002F0A0FDC8
:100BA800A8B9104B019306230293002303930E4A1E
:100BB80004920422059206938DF81D300DEB020174
:100BC800064802F067FA28B909B05DF804FBFFF798
:100BD80001FDE6E7FFF7FEFCF6E700BF9400002002
:100BE80000210240020030040000FF4700B589B030
:100BF80000230193029303930493059306930793A9
:100C08001B481C4A026043608360C360042202617F
:100C1800037543750122826103774FF4986242623B
:100C28004FF480628262C3620363436380F83830A2
:100C380002F056FDA8B9104B019306230293002336
:100C480003930E4A04920422059206938DF81D30F0
:100C58000DEB0201064802F01DFA28B909B05DF84B
:100C680004FBFFF7B7FCE6E7FFF7B4FCF6E700BFC5
:100C7800F800002000600258020030040000FF471E
:100C880030B591B000230B930C930D930E930F93F3
:100C98000368914A934208D0904A93427ED0904A82
:100CA800934200F0D78011B030BD04468D4A1368D6
:100CB80001331360012B60D08B4BD3F8E02042F056
:100CC8000402C3F8E020D3F8E02002F00402019205
:100CD800019AD3F8E02042F00102C3F8E020D3F8EB
:100CE800E02002F001020292029AD3F8E02042F0DA
:100CF8000202C3F8E020D3F8E03003F002030393C4
:100D0800039B0C230B9303250C950BA9774805F03F
:100D180075F90B950C9500250D950BA9744805F0F0
:100D28006DF94FF08071084606F03CFA4FF00071FB
:100D3800084606F037FA6F486F4B03600923436093
:100D48008560C5604FF4806303614FF4805343614D
:100D58004FF480438361C5610562456205F09EFBDF
:100D6800C8B9644BE3649C6300221146122006F064
:100D78003FF9122006F072F995E75B4BD3F8D820BB
:100D880042F02002C3F8D820D3F8D83003F020036B
:100D98000093009B90E7FFF71DFCE2E7514A1368B8
:100DA80001331360012B47D04F4BD3F8E02042F0BA
:100DB8000402C3F8E020D3F8E02002F00402059210
:100DC800059AD3F8E02042F00102C3F8E020D3F8F6
:100DD800E02002F001020692069AD3F8E02042F0E1
:100DE8000202C3F8E020D3F8E03003F002030793CF
:100DF800079B0C230B9303240C940BA93B4805F089
:100E0800FDF80B940C9400240D940BA9384805F0B8
:100E1800F5F84FF08071084606F0C4F94FF00071FC
:100E2800084606F0BFF922462146122006F0E0F8EF
:100E3800122006F013F936E72B4BD3F8D82042F0EE
:100E48002002C3F8D820D3F8D83003F02003049345
:100E5800049BA9E7244BD3F8E02042F08072C3F842
:100E6800E020D3F8E02002F080720892089AD3F8C4
:100E7800E02042F02002C3F8E020D3F8E02002F09E
:100E880020020992099AD3F8E02042F00402C3F83C
:100E9800E020D3F8E03003F004030A930A9B4FF4F0
:100EA80080630B9303240C940BA9144805F0A6F84F
:100EB80004230B930C9400230D930BA90B4805F006
:100EC8009DF84FF08061084606F06CF94FF000611C
:100ED800084606F067F9E6E60020024000210240D5
:100EE800006002582C0000200044025800080258F4
:100EF800000402585C0100207000024000140258EF
:100F080000B58BB02422002101A809F00BFA124881
:100F1800124B036006F008FAA8B9002201920623D2
:100F28000293039202230493059201A90A4806F04A
:100F38000DFA58B9102201A9074806F007FA40B976
:100F48000BB05DF804FBFFF745FBE6E7FFF742FB54
:100F5800F0E7FFF73FFBF3E7D401002000740040FF
:100F680010B588B000230393049305930693079361
:100F78000268324B9A4201D008B010BD0446304B8B
:100F8800D3F8E82042F00052C3F8E820D3F8E8206C
:100F980002F000520192019AD3F8E02042F00102D7
:100FA800C3F8E020D3F8E03003F001030293029B7A
:100FB800302303930323049303A9224805F01EF862
:100FC8002148224B0360432343604023836000236E
:100FD800C3604FF4806202614FF4805242614FF463
:100FE80080428261C3610362436205F057FAF0B937
:100FF800154BA3609C631648164B0360442343605B
:10100800402383600023C3604FF4806202614FF481
:10101800805242614FF480428261C361036243623D
:1010280005F03CFA30B90A4BE3609C63A4E7FFF78C
:10103800D1FADDE7FFF7CEFAF5E700BF007400400C
:101048000044025800000258E80100204000024015
:10105800600200205800024000B583B0134BD3F85B
:10106800D82042F00102C3F8D820D3F8D83003F0D2
:1010780001030193019B002211460D2005F0B8FFE2
:101088000D2005F0EBFF002211460E2005F0B0FF01
:101098000E2005F0E3FF002211460F2005F0A8FFFF
:1010A8000F2005F0DBFF03B05DF804FB0044025895
:1010B800F0B5B9B00023339334933593369337930F
:1010C800354B1B680BB139B0F0BD334B01221A60A8
:1010D800C022002102A809F025F94FF080720023F0
:1010E800CDE9022302A803F0D5FB002850D12B4BF1
:1010F800D3F8D42042F48052C3F8D420D3F8D430A3
:1011080003F480530193019B48F23713339302276A
:10111800349700263596032536950C24379433A941
:101128001F4804F06BFF4CF20373339334973596E2
:101138003695379433A91B4804F060FF4FF63F03F8
:101148003393349735963695379433A9164804F077
:1011580055FF01233393349735963695379433A941
:10116800124804F04BFF33943497359636953794EC
:1011780033A90F4804F042FF4FF680733393349736
:1011880035963695379433A90A4804F037FF9AE71D
:10119800FFF720FAABE700BFD8020020004402584E
:1011A80000180258000C025800140258000802588F
:1011B800001C02580010025800B589B000230193A2
:1011C8000293039304930593069307931048114AD7
:1011D8000260436083600822C260102202614021DD
:1011E800416180218161C36103624362836201922C
:1011F80002920392049205920692079201A906F0C0
:10120800EBF910B909B05DF804FBFFF7E3F9F9E76A
:10121800DC0200204041005208B5FFF749FF08BD35
:1012280010B5B8B004460021339134913591369108
:101238003791C02202A809F075F822681B4B9A4220
:1012480001D038B010BD4FF080520023CDE9022301
:1012580002A803F01FFB28BB154BD3F8F02042F07F
:101268000052C3F8F020D3F8F02002F000520092A8
:10127800009AD3F8E02042F00802C3F8E020D3F83F
:10128800E03003F008030193019B102333930223FA
:101298003493002235923692379333A9054804F0E7
:1012A800ADFECEE7FFF796F9D6E700BF0074014020
:1012B80000440258000C0258F0B589B0002303938B
:1012C80004930593069307930268254B9A4201D02D
:1012D80009B0F0BD234BD3F8E02042F01002C3F868
:1012E800E020D3F8E02002F010020092009AD3F830
:1012F800E02042F00402C3F8E020D3F8E02002F036
:1013080004020192019AD3F8E02042F04002C3F8A7
:10131800E020D3F8E03003F040030293029B02245C
:101328000394049406940325079503A90E4804F032
:1013380065FEC027039704940026059606950123A9
:10134800079303A9094804F059FE039704940596E6
:101358000695079403A9064804F050FEB8E700BFB5
:101368000074014000440258001002580008025856
:101378000018025810B5A6B000242294239424948F
:1013880025941E941F94209421945422214609A840
:1013980008F0C8FF2022214601A808F0C3FF5448DE
:1013A800544B03604460846006F0F4FA00287ED150
:1013B80000214F4806F03EFC00287BD100232293F1
:1013C800022223922493259322AA0421484806F056
:1013D80069FB002871D1464C01220421204606F001
:1013E8004FFC4FF6FD731E9300211F910523209398
:1013F800082321931EAA204606F03AFB00285FD155
:10140800002109910A910B910C9101230D930E91E2
:101418000F911091119112911391149115911691A8
:101428001791189119911A911B911C911D9109AA54
:101438002F4806F074FC002845D100231A9309AA06
:1014480004212B4806F06BFC00283FD100210191B4
:10145800029103910491059106910791089101ABBE
:101468000122234806F093FC98BB01AB4FF480722D
:1014780004211F4806F08BFC70BB01AB022200213F
:101488001B4806F084FC50BB01AB4FF400720421EA
:10149800174806F07CFC28BB1EAA0421144806F055
:1014A800E7FA10BB1248FFF707FF26B010BDFFF799
:1014B80091F87DE7FFF78EF880E7FFF78BF88AE76A
:1014C800FFF788F89CE7FFF785F8B6E7FFF782F89B
:1014D800BCE7FFF77FF8C8E7FFF77CF8CDE7FFF731
:1014E80079F8D1E7FFF776F8D6E7FFF773F8D9E789
:1014F800100300200074014008B51248124B036025
:10150800124B4360002383600122C2600361436180
:101518008361C361036205F04FFE50B90021094899
:1015280005F0A8FE40B90021064805F0D1FE30B903
:1015380008BDFFF74FF8F1E7FFF74CF8F3E7FFF7BF
:1015480049F8F5E7EC03002000580040CE9F9000D2
:1015580008B51248124B0360124B436000238360A6
:101568000122C260036143618361C361036205F0C4
:1015780023FE50B90021094805F07CFE40B900213E
:10158800064805F0A5FE30B908BDFFF723F8F1E7D6
:10159800FFF720F8F3E7FFF71DF8F5E74004002010
:1015A800005C0040CE9F900008B51248124B0360C3
:1015B800124B4360002383600122C26003614361D0
:1015C8008361C361036205F0F7FD50B90021094842
:1015D80005F050FE40B90021064805F079FE30B903
:1015E80008BDFEF7F7FFF1E7FEF7F4FFF3E7FEF7B4
:1015F800F1FFF5E794040020001C0058CE9F9000EE
:10160800F0B5BFB00446002139913A913B913C9125
:101618003D91C02208A808F085FE23685E4A9342DF
:1016280007D05E4A934237D05D4A934268D03FB0B4
:10163800F0BD08220023CDE9082308A803F02AF901
:1016480038BB584CD4F8E03043F08003C4F8E0309D
:10165800D4F8E03003F080030193019B30233993E1
:1016680012233A9301233B9300233C9304233D9395
:1016780039A94D4804F0C2FCD4F8E83043F480039B
:10168800C4F8E830D4F8E83003F480030293029BEE
:10169800CDE7FEF79FFFD4E708220023CDE9082312
:1016A80008A803F0F7F840BB3E4CD4F8E03043F00C
:1016B8008003C4F8E030D4F8E03003F080030393EB
:1016C800039B4FF4C073399312233A9301233B933E
:1016D80000233C9304233D9339A9334804F08EFC3E
:1016E800D4F8E83043F40003C4F8E830D4F8E8301C
:1016F80003F400030493049B99E7FEF76BFFD3E719
:1017080010220023CDE9082308A803F0C3F8002815
:101718003FD1244CD4F8E03043F00203C4F8E03061
:10172800D4F8E03003F002030593059BD4F8E030C9
:1017380043F08003C4F8E030D4F8E03003F08003CD
:101748000693069B4023399312273A9701263B9626
:1017580000253C9506233D9339A9144804F04EFC16
:101768004FF4805339933A973B963C9504233D9325
:1017780039A90D4804F042FCD4F8F43043F0800352
:10178800C4F8F430D4F8F43003F080030793079BCF
:101798004DE7FEF71FFFBCE700580040005C004023
:1017A800001C005800440258001C0258000402584B
:1017B80008B51748174B0360174B43600023836035
:1017C800C36003610C2242618361036243628362E6
:1017D800436606F036FF70B900210D4806F0A9FFF0
:1017E80060B900210A4806F0C9FF50B9084806F058
:1017F80081FF48B908BDFEF7EDFEEDE7FEF7EAFE0A
:10180800EFE7FEF7E7FEF1E7FEF7E4FEF2E700BFD9
:10181800E8040020000C00582433030008B51748DA
:10182800174B03604FF4E133436000238360C360C8
:1018380003610C2242618361C36103624362836274
:1018480006F0FFFE70B900210C4806F072FF60B97F
:1018580000210A4806F092FF50B9084806F04AFFEE
:1018680048B908BDFEF7B6FEEDE7FEF7B3FEEFE7B1
:10187800FEF7B0FEF1E7FEF7ADFEF2E71006002036
:10188800004C004008B51748174B03604FF4E1338C
:10189800436000238360C36003610C22426183615B
:1018A800C36103624362836206F0CBFE70B9002114
:1018B8000C4806F03EFF60B900210A4806F05EFFBA
:1018C80050B9084806F016FF48B908BDFEF782FE71
:1018D800EDE7FEF77FFEEFE7FEF77CFEF1E7FEF7A8
:1018E80079FEF2E7A40600200078004008B5174802
:1018F800174B03604FF4E133436000238360C360F8
:1019080003610C2242618361C361036243628362A3
:1019180006F097FE70B900210C4806F00AFF60B97E
:1019280000210A4806F02AFF50B9084806F0E2FEEE
:1019380048B908BDFEF74EFEEDE7FEF74BFEEFE7B0
:10194800FEF748FEF1E7FEF745FEF2E7380700200C
:10195800007C004008B51748174B03604FF4E1338B
:10196800436000238360C36003610C22426183618A
:10197800C36103624362036407F072FA70B900211D
:101988000C4807F0DCFA60B900210A4807F0FBFAB6
:1019980050B9084807F0B4FA48B908BDFEF71AFE6E
:1019A800EDE7FEF717FEEFE7FEF714FEF1E7FEF7A7
:1019B80011FEF2E7CC0700200010014008B51748D7
:1019C800174B03604FF4E133436000238360C36027
:1019D80003610C2242618361C361036243628362D3
:1019E80006F02FFE70B900210C4806F0A2FE60B97F
:1019F80000210A4806F0C2FE50B9084806F07AFEEF
:101A080048B908BDFEF7E6FDEDE7FEF7E3FDEFE7B1
:101A1800FEF7E0FDF1E7FEF7DDFDF2E77C050020CB
:101A28000044004070B5C4B0044600213F91409185
:101A3800419142914391C0220EA808F073FC23689B
:101A4800AB4A934210D0AB4A934258D0AA4A934229
:101A580000F0A080A94A934200F0CE80A84A9342A1
:101A680000F0148144B070BD04220023CDE90E2398
:101A78000EA802F00FFF00283ED1A24BD3F8F420A5
:101A880042F00802C3F8F420D3F8F42002F0080268
:101A98000192019AD3F8E02042F00202C3F8E02054
:101AA800D3F8E02002F002020292029AD3F8E02072
:101AB80042F00102C3F8E020D3F8E03003F001035C
:101AC8000393039B80233F93022540950024419470
:101AD8004294082343933FA98B4804F08FFA4FF4AC
:101AE80000733F93409541944294032343933FA945
:101AF800864804F083FAB5E7FEF76CFDBDE70222DD
:101B08000023CDE90E230EA802F0C4FE00283ED122
:101B18007C4BD3F8E82042F40022C3F8E820D3F83D
:101B2800E82002F400220492049AD3F8E02042F05C
:101B38008002C3F8E020D3F8E02002F0800205928A
:101B4800059AD3F8E02042F00202C3F8E020D3F867
:101B5800E03003F002030693069B4FF480433F9363
:101B680002264096002441944294082543953FA9B3
:101B7800674804F043FA4FF400733F93409641944A
:101B8800429443953FA9604804F038FA6AE7FEF7A3
:101B980021FDBDE702220023CDE90E230EA802F0A5
:101BA80079FE30BB574BD3F8E82042F08042C3F8A7
:101BB800E820D3F8E82002F080420792079AD3F889
:101BC800E02042F02002C3F8E020D3F8E03003F030
:101BD80020030893089BC0233F93022340930023CC
:101BE80041934293072343933FA94A4804F006FAD6
:101BF80038E7FEF7EFFCD5E702220023CDE90E23F4
:101C08000EA802F047FE00283DD13E4BD3F8E8204D
:101C180042F00042C3F8E820D3F8E82002F000427E
:101C28000992099AD3F8E02042F01002C3F8E020A4
:101C3800D3F8E02002F010020A920A9AD3F8E020C2
:101C480042F40072C3F8E020D3F8E03003F40073E4
:101C58000B930B9B01233F9302264096002441944B
:101C68004294082543953FA92B4804F0C7F94FF43F
:101C780080733F9340964194429443953FA92748E7
:101C880004F0BCF9EEE6FEF7A5FCBEE7022200234D
:101C9800CDE90E230EA802F0FDFD30BB194BD3F899
:101CA800E82042F40032C3F8E820D3F8E82002F430
:101CB80000320C920C9AD3F8E02042F00802C3F8E4
:101CC800E020D3F8E03003F008030D930D9B602368
:101CD8003F93022340930023419342930723439366
:101CE8003FA90F4804F08AF9BCE6FEF773FCD5E774
:101CF800000C0058004C004000780040007C004078
:101D080000440040004402580004025800000258F1
:101D1800001C0258001402580010025800240258EF
:101D2800000C025830B5BBB00446002135913691FD
:101D3800379138913991C02204A808F0F3FA226843
:101D4800284B9A4201D03BB030BD01220023CDE997
:101D5800042304A802F09EFD00283FD1224BD3F8AB
:101D6800F02042F01002C3F8F020D3F8F02002F07F
:101D780010020192019AD3F8E02042F00102C3F860
:101D8800E020D3F8E02002F001020292029AD3F890
:101D9800E02042F00202C3F8E020D3F8E03003F07C
:101DA80002030393039B4FF4807335930225369502
:101DB8000024379438940723399335A90B4804F045
:101DC8001DF94FF4404335933695379438940423DE
:101DD800399335A9064804F011F9B4E7FEF7FAFB80
:101DE800BCE700BF00100140004402580000025840
:101DF8000004025808B50A480A4B036000234360F0
:101E08007F228260FF22C26003618361C3614361F4
:101E180007F042F900B908BDFEF7DCFBFBE700BF9D
:101E28002C0800200040005810B5B0B00446C0226D
:101E38000021684608F076FA22680D4B9A4201D0D4
:101E480030B010BD4FF480020023CDE900234FF4D9
:101E580000732D93684602F01DFD28B9054A136FDB
:101E680043F400431367EBE7FEF7B4FBF6E700BF64
:101E7800004000580044025808B51348134B03604B
:101E88004FF480034360002383600322C260036130
:101E980043614FF0005282614FF08042C261036299
:101EA80043628362C36242638363C36303644364BC
:101EB8008364C36403654365836507F047F900B924
:101EC80008BDFEF787FBFBE7500800200030014003
:101ED80008B51348134B03604FF480034360002395
:101EE80083600322C260036143614FF00052826144
:101EF8004FF08042C261036243628362C3624263FD
:101F08008363C363036443648364C3640365436591
:101F1800836507F01BF900B908BDFEF75BFBFBE71B
:101F2800D80800200038004008B51348134B036058
:101F38004FF480034360002383600322C26003617F
:101F480043614FF080628261C361036243628362CE
:101F5800C3624FF0804242638363C3630364436494
:101F68008364C36403654365836507F0EFF800B9CC
:101F780008BDFEF72FFBFBE7600900200050014079
:101F880008B51348134B03604FF4800343600023E4
:101F980083600322C260036143614FF08062826103
:101FA800C361036243628362C3624FF0804242634B
:101FB8008363C363036443648364C36403654365E1
:101FC800836507F0C3F800B908BDFEF703FBFBE71C
:101FD800E80900200014005870B5C2B0044600217A
:101FE8003D913E913F9140914191C0220CA808F04B
:101FF80099F92368914A93420CD0914A934254D05C
:10200800904A934200F084808F4A934200F0E28025
:1020180042B070BD4FF480520023CDE90C230CA8C8
:1020280002F038FC00283DD1884BD3F8F02042F468
:102038008052C3F8F020D3F8F02002F480520192C5
:10204800019AD3F8E02042F04002C3F8E020D3F828
:10205800E02002F040020292029AD3F8E02042F017
:102068000802C3F8E020D3F8E03003F00803039334
:10207800039B4FF460633D9302263E9600243F94F1
:102088004094052541953DA9714803F0B7FF802389
:102098003D933E963F94409441953DA96D4803F089
:1020A800ADFFB5E7FEF796FABEE74FF4805200237E
:1020B800CDE90C230CA802F0EDFB30BB634BD3F841
:1020C800E82042F48042C3F8E820D3F8E82002F47C
:1020D80080420492049AD3F8E02042F48072C3F854
:1020E800E020D3F8E03003F480730593059B0F23B9
:1020F8003D9302233E9300233F934093052341934E
:102108003DA9554803F07AFF82E7FEF763FAD5E761
:102118004FF400520023CDE90C230CA802F0BAFBBF
:10212800002854D1494BD3F8F02042F48012C3F868
:10213800F020D3F8F02002F480120692069AD3F821
:10214800E02042F48062C3F8E020D3F8E02002F4F3
:1021580080620792079AD3F8E02042F02002C3F881
:10216800E020D3F8E02002F020020892089AD3F881
:10217800E02042F40072C3F8E020D3F8E03003F422
:1021880000730993099B01233D9302263E96002480
:102198003F944094052541953DA9304803F02EFF12
:1021A8004FF480733D933E963F94409441953DA9EA
:1021B8002B4803F023FF4FF480633D933E963F94F2
:1021C800409441953DA9274803F018FF20E7FEF702
:1021D80001FAA7E74FF480420023CDE90C230CA8AD
:1021E80002F058FB38BB194BD3F8F42042F0200218
:1021F800C3F8F420D3F8F42002F020020A920A9AD5
:10220800D3F8E02042F04002C3F8E020D3F8E030F1
:1022180003F040030B930B9B4FF4E0433D930223E1
:102228003E9300233F934093052341933DA90848DB
:1022380003F0E4FEECE6FEF7CDF9D4E70030014008
:102248000038004000500140001400580044025873
:1022580000180258000C02580020025800280258A2
:10226800001402580024025800B589B000230493D2
:102278000593069307930193029303931648174A0D
:10228800026040F25722426083600922C260036103
:102298004361836107F044FBA0B94FF48053049372
:1022A80004A90D4807F0C8FD78B92023019300233D
:1022B8000293039301A9084807F02CFF40B909B01D
:1022C8005DF804FBFEF786F9E7E7FEF783F9ECE72C
:1022D800FEF780F9F3E700BF700A00200000014014
:1022E80000B591B02422002107A808F01BF80023AC
:1022F8000493059306930093019302930393204854
:10230800204A0260436083604FF6FF72C260036137
:10231800836107F065FB30BB012207920023089315
:1023280009920A930B930C930D920E930F9307A99E
:10233800134807F085FBC8B900230493069304A942
:102348000F4807F0E7FEA0B900230093012201928D
:102358000293039308226946094807F0FDFC58B91F
:1023680011B05DF804FBFEF735F9D5E7FEF732F951
:10237800E2E7FEF72FF9E7E7FEF72CF9F0E700BFF1
:102388001C0D00200008004000B58DB0242200215B
:1023980003A807F0C7FF0023009301930293114895
:1023A800114A0260436083604FF0FF32C2600361EC
:1023B8008361012303930593099303A907F040FB65
:1023C80050B90023009302936946064807F0A2FE1D
:1023D80028B90DB05DF804FBFEF7FCF8F1E7FEF74D
:1023E800F9F8F6E7680D0020000C004000B585B04C
:1023F80000230193029303930E480F4A026043603F
:1024080083604FF6FF72C260836107F089FA50B9A2
:1024180000230193039301A9064807F07BFE28B91E
:1024280005B05DF804FBFEF7D5F8F1E7FEF7D2F842
:10243800F6E700BFB40D00200010004000B585B0DD
:1024480000230193029303930E480F4A02604360EE
:1024580083604FF6FF72C260836107F061FA50B97A
:1024680000230193039301A9064807F053FE28B9F6
:1024780005B05DF804FBFEF7ADF8F1E7FEF7AAF842
:10248800F6E700BF000E00200014004000B58DB034
:102498002422002103A807F045FF0023009301939D
:1024A80002931248124A0260436083604FF6FF723B
:1024B800C260036143618361012303930593099318
:1024C80003A907F0BDFA58B90023009301930293BA
:1024D8006946064807F01EFE28B90DB05DF804FBF2
:1024E800FEF778F8F0E7FEF775F8F6E74C0E0020EF
:1024F8000004014000B58BB00023059306930793B1
:102508000893099301930293039304931E481F4A67
:102518000260436083604FF6FF72C26003618361AB
:1025280007F05EFA20BB042305935023069300238B
:1025380007930893099305A9134807F0C1FDD0B97B
:1025480000220192012302930392049201A90E48EA
:1025580007F002FC90B902230193029304220DEBC9
:102568000201094807F0F8FB58B90BB05DF804FB05
:10257800FEF730F8D7E7FEF72DF8E1E7FEF72AF87F
:10258800E9E7FEF727F8F0E7BC0A0020001800404A
:1025980008B50948094B03600023436083604FF680
:1025A800FF72C2600361836107F0BAF900B908BD20
:1025B800FEF710F8FBE700BF080B0020001C0040E6
:1025C80000B589B0002305930693079301930293FE
:1025D800039304931748184A0260436083604FF6D8
:1025E800FF72C26003614361836107F0F9F9B8B90A
:1025F80000230593079305A90E4807F08BFD90B9B2
:1026080000230193012202920393049304220DEB09
:102618000201084807F0A0FB40B909B05DF804FBC7
:10262800FDF7D8FFE4E7FDF7D5FFE9E7FDF7D2FFAF
:10263800F3E700BFA00B00200040014008B509489F
:10264800094B03600023436083604FF6FF72C2604A
:1026580003614361836107F063F900B908BDFDF7C1
:10266800B9FFFBE7EC0B00200044014008B509481E
:10267800094B03600023436083604FF6FF72C2601A
:1026880003614361836107F04BF900B908BDFDF7A9
:10269800A1FFFBE7380C00200048014000B589B0D5
:1026A8000368404A93421FD03F4A934232D03F4A80
:1026B80093423FD03E4A93424AD03E4A934255D035
:1026C8003D4A934260D03D4A934230D13C4BD3F8C7
:1026D800F02042F48022C3F8F020D3F8F03003F45D
:1026E80080230793079B22E0354BD3F8F02042F074
:1026F8000102C3F8F020D3F8F03003F0010301938E
:10270800019B00221146192004F072FC192004F0E4
:10271800A5FC0CE02A4BD3F8E82042F01002C3F8DD
:10272800E820D3F8E83003F010030293029B09B0C5
:102738005DF804FB224BD3F8E82042F02002C3F8EE
:10274800E820D3F8E83003F020030393039BEEE777
:102758001B4BD3F8E82042F08002C3F8E820D3F8F6
:10276800E83003F080030493049BE0E7144BD3F8AC
:10277800E82042F48072C3F8E820D3F8E83003F484
:1027880080730593059BD2E70D4BD3F8F02042F4F4
:102798000032C3F8F020D3F8F03003F40033069386
:1027A800069BC4E7000001400010004000140040F0
:1027B800001C004000200040004401400048014047
:1027C8000044025830B591B000230B930C930D933D
:1027D8000E930F930368B3F1804F0BD0644A934272
:1027E80043D0644A93427CD0634A934200F09C8071
:1027F80011B030BD614BD3F8E82042F00102C3F8B4
:10280800E820D3F8E82002F001020192019AD3F8F7
:10281800E02042F00102C3F8E020D3F8E02002F003
:1028280001020292029AD3F8E02042F00202C3F8B1
:10283800E020D3F8E03003F002030393039B012464
:102848000B9402250C950F940BA94D4803F0D6FB69
:102858004FF480630B930C9500230D930E930F9404
:102868000BA9484803F0CAFBC2E7444BD3F8E82059
:1028780042F00402C3F8E820D3F8E82002F004028A
:102888000492049AD3F8E02042F00202C3F8E02050
:10289800D3F8E02002F002020592059AD3F8E0206E
:1028A80042F00802C3F8E020D3F8E03003F0080350
:1028B8000693069B4FF480730B9302240C940F9499
:1028C8000BA9304803F09AFB4FF440530B930C9438
:1028D80000230D930E930F940BA92B4803F08EFB46
:1028E80086E7264BD3F8E82042F04002C3F8E820F8
:1028F800D3F8E82002F040020792079AD3F8E020C4
:1029080042F08002C3F8E020D3F8E03003F08003FF
:102918000893089B40230B9302230C930F930BA956
:102928001A4803F06BFB63E7144BD3F8F02042F42A
:102938008032C3F8F020D3F8F02002F480320992F4
:10294800099AD3F8E02042F01002C3F8E020D3F847
:10295800E03003F010030A930A9B40230B930223F1
:102968000C9304230F930BA9094803F047FB3FE797
:102978000008004000180040004001400044025890
:102988000000025800040258000C0258001C0258AB
:102998000010025802680A4B9A4200D0704782B071
:1029A800084BD3F8E82042F00202C3F8E820D3F835
:1029B800E83003F002030193019B02B0704700BFA7
:1029C800000400400044025800B58BB00023059372
:1029D80006930793089309930368284A934205D0FE
:1029E800274A934226D00BB05DF804FB254BD3F859
:1029F800E82042F00802C3F8E820D3F8E82002F003
:102A080008020192019AD3F8E02042F08002C3F84C
:102A1800E020D3F8E03003F080030293029B4FF4E8
:102A28004063059302230693099305A9164803F00A
:102A3800E5FAD8E7134BD3F8F02042F00202C3F8C6
:102A4800F020D3F8F02002F002020392039AD3F8A0
:102A5800E02042F48072C3F8E020D3F8E03003F4B9
:102A680080730493049B6023059302230693032336
:102A7800099305A9054803F0C1FAB4E7000C004022
:102A88000004014000440258001C0258002002586B
:102A980000B589B000230393049305930693079325
:102AA8000368B3F1804F08D0284A93421DD0284AC2
:102AB800934231D009B05DF804FB264BD3F8E020EF
:102AC80042F00102C3F8E020D3F8E03003F001033C
:102AD8000093009B08230393022304930123079385
:102AE80003A91D4803F08AFAE4E71A4BD3F8E0205B
:102AF80042F00102C3F8E020D3F8E03003F001030C
:102B08000193019B4023039302230493079303A992
:102B1800114803F073FACDE70E4BD3F8E02042F0EA
:102B28002002C3F8E020D3F8E03003F0200302933A
:102B3800029B4FF400730393022304930923079322
:102B480003A9064803F05AFAB4E700BF000400409E
:102B580000200040004402580000025800140258A7
:102B680000B58FB000230B930C930D930793089334
:102B780009930A9300930193029303930493059393
:102B8800069328484FF080420260436083604FF00C
:102B9800FF32C2600361836106F022FF00282FD153
:102BA800204806F0EDFE00282DD100230B930D934D
:102BB8000BA91C4807F0AEFA40BB0022079201237C
:102BC800089309920A9207A9164807F0C5F800BBAE
:102BD800082207A9134807F0BFF8E8B96023009353
:102BE80000230193029304930C2269460D4806F0D2
:102BF800CBFFA0B90B48FFF74BFF0FB05DF804FB04
:102C0800FDF7E8FCCCE7FDF7E5FCCEE7FDF7E2FCD5
:102C1800D3E7FDF7DFFCDBE7FDF7DCFCDEE7FDF7DC
:102C2800D9FCE7E7840C002000B58BB0002307939C
:102C380008930993009301930293039304930593D4
:102C480006931748174A0260436083604FF6FF7285
:102C5800C2600361836106F093FEC0B90023079345
:102C6800099307A90E4807F055FA98B9602300930D
:102C780000220192029204926946094806F084FFF4
:102C880058B90748FFF704FF0BB05DF804FBFDF7E0
:102C9800A1FCE3E7FDF79EFCE8E7FDF79BFCF0E706
:102CA800D00C00200004004000B589B00023019337
:102CB8000293039304930593069307931548164AC2
:102CC8000260436083604FF6FF72C26003618361F4
:102CD80006F026FEA0B90F4806F052FE98B9602308
:102CE8000193002202920392059201A9094806F075
:102CF8004BFF58B90748FFF7CBFE09B05DF804FB56
:102D0800FDF768FCE7E7FDF765FCE8E7FDF762FC1F
:102D1800F0E700BF540B0020002000407047FEE79A
:102D2800FEE7FEE7FEE7FEE770477047704708B525
:102D380004F00CFA08BD000008B5024803F080FD55
:102D480008BD00BFE801002008B5024803F078FD7F
:102D580008BD00BF6002002008B5024803F070FDFE
:102D680008BD00BF5C01002008B5034800F026F844
:102D7800024800F023F808BD30000020940000202D
:102D880008B5024806F07DFC08BD00BF700A0020A7
:102D980082B0074BD3F8F42042F00202C3F8F420C3
:102DA800D3F8F43003F002030193019B02B070479B
:102DB800004402587047704770470000F8B5044651
:102DC80003681D685E689649964A934218BF8B420D
:102DD80040D1954B9F6807F01F0715F0020F10D0E0
:102DE80016F0020F0DD0636D13F0100F03D1636D51
:102DF80043F400636365204600F0A8FD23680222BF
:102E08001A6015F0040F02D016F0040F05D115F062
:102E1800080F4FD016F0080F4CD0636D13F0100F49
:102E280003D1636D43F4007363652368DA6812F4B1
:102E3800406F39D17B4A93420ED01A4693420ED046
:102E4800052F14BF002101214FB141B9092F06D028
:102E5800D26805E0754BBDE7A2F58072EEE7DA6847
:102E680012F4005F20D11A6812F0080F1CD09A687B
:102E780012F0040F10D15A6822F00C025A60636DE8
:102E880023F480736365636D13F4805F0CD1636D05
:102E980043F00103636507E0636D43F01003636566
:102EA800A36D43F00103A3652046FFF783FF236862
:102EB8000C221A6015F0200F02D016F0200F05D151
:102EC80015F0400F63D016F0400F60D0636D13F01B
:102ED800100F03D1636D43F4005363652368DA6C04
:102EE80012F4C07F19D10121DA6812F4406F16D1AB
:102EF80001204C4A934214D01A46934214D0062F0C
:102F080014BF4FF0000C4FF0010C6FB1BCF1000F73
:102F18000AD1072F08D0D26807E00021E4E7002093
:102F2800E7E7A2F58072E8E7DA6851B312F0007FAC
:102F380003D030B312F4005F23D1196811F0400FA9
:102F48001FD012F4001F1CD19A6812F0080F10D17C
:102F58005A6822F060025A60636D23F480536365F7
:102F6800636D13F4807F0CD1636D43F001036365D7
:102F780007E0636D43F010036365A36D43F001033D
:102F8800A365204600F0DEFC236860221A6015F075
:102F9800800F02D016F0800F36D115F4807F02D052
:102FA80016F4807F44D115F4007F02D016F4007F18
:102FB8004AD115F0100F20D016F0100F1DD0236B3A
:102FC8006BB1002F4ED023681549164A934218BF9B
:102FD8008B4245D1144B9B6813F4404F0AD0636D64
:102FE80043F480636365A36D43F00203A365204641
:102FF800FFF7E2FE236810221A6015F4806F02D0F2
:1030080016F4806F34D1F8BD636D43F48033636583
:103018002046FFF7D0FE236880221A60BDE700BF74
:1030280000200240002102400023024000630258B1
:10303800636D43F400336365204600F085FC236824
:103048004FF480721A60AEE7636D43F480236365C2
:10305800204600F07AFC23684FF400721A60A8E753
:103068000B4BB8E72368DB6813F0030FC2D0B6E751
:10307800636D43F480436365A36D43F00803A36560
:1030880023684FF480621A60204600F05CFCBAE7BF
:1030980000630258F0B583B00022019290F85020E6
:1030A800012A00F055820346012280F8502000686A
:1030B800826812F0040F09D05A6D42F020025A6556
:1030C8000120002283F8502003B0F0BD0A68C2F343
:1030D8001304002C4ED1C2F3846201249440C269C7
:1030E8002243C2611D684C683035220A920002F002
:1030F8000C02A85804F01F0E1F2404FA0EF420EA4C
:1031080004000C68C4F3846C0CFA0EFC40EA0C0052
:10311800A8501C68A26812F0040200D00122A0681E
:1031280010F0080000D0012002432FD018688268F0
:1031380012F0010F40F008820A68CD68D0F8C0404C
:10314800C2F3130624EA060405F0180CB24D25FA5A
:103158000CF52A40C2F313022243C0F8C020C86805
:10316800AE4A904200F0B0800A68002AC0F26B8133
:103178000020A6E792FAA2F232B1B2FA82F202F085
:103188001F0201249440AAE72022F8E70F688D68FF
:103198001434780E800000F004002658C7F3045E4B
:1031A8004FF0070C0CFA0EFC26EA0C0C05FA0EF58B
:1031B8004CEA050525509A48006800F07040B0F1C7
:1031C800805F0BD01C68E06810F0100F39D1486997
:1031D800E468C4F382046400A04006E048691C68FF
:1031E800E468C4F382046400A0400D69042D36D05D
:1031F8001F680E68603757F8254004F0004406F051
:10320800F8463043204347F8250018680E694C7E7D
:10321800012C1ED01546603050F8264024F000449A
:103228002C4340F826401D680C69087E012813D0FD
:10323800286920F4F04004F01F04A24002432A61E8
:1032480074E74869E468A40804F004046400A04032
:10325800CBE74FF00045DEE74FF40062E8E7186877
:10326800026E02F0F8420C68B2EB846F1DD0186849
:10327800426E02F0F8420C68B2EB846F1AD01868FC
:10328800826E02F0F8420C68B2EB846F17D01868AF
:10329800C26E02F0F8420C68B2EB846F7FF446AF5E
:1032A800C26E22F00042C26640E7026E22F000427F
:1032B8000266DCE7426E22F000424266DFE7826E79
:1032C80022F000428266E2E71C680A68C2F313052E
:1032D800002D34D1900E013000F01F0009288CBF5A
:1032E80000200120002861D0002D37D1900E013038
:1032F800800600F0F840002D3CD1960E013606F00D
:103308001F070126BE403043002D41D1920E0132E5
:1033180002F01F0202EB42021205024388681434CD
:10332800550EAD0005F004056659C2F3045207278F
:10333800974026EA070690403043605114E792FA16
:10334800A2F048B1B0FA80F0013000F01F0009285F
:103358008CBF00200120C5E72020F5E792FAA2F0F3
:1033680030B1B0FA80F00130800600F0F840C2E7D2
:103378002020F8E792FAA2F646B1B6FA86F60136A8
:1033880006F01F06012707FA06F6BCE72026F6E72F
:1033980092FAA2F242B1B2FA82F2013202F01F02AC
:1033A80002EB42021205B8E72022F6E7CDB9900EEB
:1033B8000130800600F0F840FDB9960E013606F09F
:1033C8001F070126BE40304365BB920E013202F052
:1033D8001F0202EB42021E3A120542F0007202433B
:1033E8009CE792FAA2F030B1B0FA80F00130800682
:1033F80000F0F840E0E72020F8E792FAA2F646B19C
:10340800B6FA86F6013606F01F06012707FA06F611
:10341800D9E72026F6E700BFFFFF0F000000FF47AF
:103428000010005C92FAA2F25AB1B2FA82F20132AA
:1034380002F01F0202EB42021E3A120542F000722D
:10344800CDE72022F3E719684248434CA14218BF50
:1034580081420CBF0120002021D1404EB56805F003
:10346800E077F0B13B48806810F0010000D00120FF
:10347800394CA46814F0010400D0012420430CBF87
:1034880001200020002859D03548824212D0354802
:10349800824231D0344882423FD0002011E6334E78
:1034A800DCE73348806810F0010000D0012080F08C
:1034B8000100E7E715F4000FE9D12D4A914201D048
:1034C8000020FEE547F40002B16821F0E0710A43EC
:1034D800B260284A126892092749A1FB0212920990
:1034E80001325200019202E0019A013A0192019AD6
:1034F800002AF9D10020E4E515F0807FCAD11C4AE2
:10350800914201D00020DCE547F08072B16821F0DB
:10351800E0710A43B2600020D3E515F4800F15D19D
:10352800134A914201D00020CBE547F48002B168EC
:1035380021F0E0710A43B2600020C2E55A6D42F002
:1035480020025A650120BCE50020BAE50020B8E554
:103558000220B9E500200240002102400023024079
:10356800000084CB000052C70000B8CF00630258A7
:103578000060025808000020632D3E0538B5044657
:1035880003684F494F4A934218BF8B4223D14E4B91
:103598009B6813F4403F14BF012300234BB301F091
:1035A80027F805466368B3F5003F1CD0B3F5403FE4
:1035B8001DD0B3F5803F16D003F0EEFD41F20303B2
:1035C800984258D8414B9D424FD92268936843F49A
:1035D8008073936038BD3E4B9B6813F4403F14BF23
:1035E80001230023DAE71B0CB5FBF3F5E4E78508B4
:1035F800E2E74FF40020002102F098F905466368DD
:10360800B3F5101F2DD022D8B3F5E01F27D004D969
:10361800B3F5001FD0D14509CEE7B3F5801F0DD013
:1036280006D9B3F5A01F09D0B3F5C01F06D0C3E76C
:10363800B3F5002F02D0B3F5402F04D19B0C5B00EB
:10364800B5FBF3F5B8E7B3F5802FF7D0B4E7B3F5DA
:10365800201F08D0B3F5301FAED1050AACE7050925
:10366800AAE78509A8E7C509A6E72268936823F4AD
:1036780080739360AEE7174B9D4205D82268936824
:1036880023F440739360A5E7134B9D4207D8226843
:10369800936823F4407343F4807393609AE70F4B65
:1036A8009D4207D82268936823F4407343F400735B
:1036B80093608FE72268936843F44073936089E7C7
:1036C800002002400021024000230240002D310169
:1036D8000063025821BCBE0041787D0181F0FA02E6
:1036E80030B583B000230193002800F01081044610
:1036F800436DEBB123689A6812F0005F03D09968B4
:10370800844A0A409A6023689A6812F0805F1CD144
:103718009968814A0A4042F080529A607F4B1B6840
:103728009B097F4AA2FB03239B090133019309E00C
:10373800FDF7A6FA0023A36584F85030DAE7019B69
:10374800013B0193019B002BF9D12268936813F088
:10375800805F40F09C80636D43F010036365A36D48
:1037680043F00103A3650125936813F0040300D017
:103778000123616D11F0100F40F0C180002B40F063
:10378800BE80636D23F4817343F00203636593681D
:1037980013F0010F21D16349634B9A4218BF8A4243
:1037A8000CBF0122002274D18B6813F0010300D0F2
:1037B80001235D49896811F0010100D001210B4303
:1037C8000CBF0123002343B1002A6BD0574963681B
:1037D8008A6822F47C1213438B6003F0DDFC41F20B
:1037E8000303984202D9A368102B5DD0627D236B36
:1037F80043EA4233A2681343227F43EA0243227F0B
:10380800012A5CD0626A22B102F47872A16A0A4382
:1038180013432168C868464A02401343CB602168B5
:103828008B6813F0040300D001238A6812F00802A1
:1038380000D0012213431BD1227DE36A43EA82327E
:10384800C8683C4B03401343CB6094F83830012BD5
:103858003AD02268136923F00103136122681369BF
:1038680023F07043616B0B4313612046FFF786FE1C
:10387800E368012B3AD02268136B23F00F0313631C
:10388800636D23F0030343F0010363653CE0002507
:103898006AE7294B9B6813F0010300D0012383F0EA
:1038A800010390E7254992E7617D226B42EA4132A4
:1038B8001343227F43EA024343F00C039FE7226A43
:1038C800013A43EA42439DE7206802691C4B1340D2
:1038D800E26B511E226C42EA0142616C0A43A16C00
:1038E8000A43134343F001030361B7E721680B6BF5
:1038F80023F00F03A269013A13430B63C0E7636D1A
:1039080043F0100363650125284603B030BD012547
:10391800FAE700BFC0FFFF5FC0FFFF6F080000208D
:10392800632D3E0500200240002102400023024092
:1039380003C0F0FFFCBFFFFF00600258006302589D
:103948001EF800FC704770477047704770470000CA
:1039580090F85020012A00F0A18030B49AB00346B4
:10396800012280F8502000221692179200684C4AD3
:10397800904242D000220192019A002A41D09268D6
:1039880012F0040200D00122846814F0040F76D1EA
:10399800002A74D1424C434A904218BFA04239D100
:1039A80002F50072086800283FD0906820F4404073
:1039B8004C68204390601868394D3A4CA04218BFB3
:1039C800A84229D1A86810F0010000D00120354C88
:1039D800A46814F0010400D0012420430CBF012086
:1039E8000020002856D094682F4820400C68896829
:1039F800214308439060002046E002F5807201925E
:103A0800BAE75A6D42F020025A65002283F8502026
:103A180001203CE0254AC5E72548806810F00100F0
:103A280000D0012080F00100DBE7916821F44041DB
:103A3800916019681A4C1B48814218BFA14215D1E0
:103A4800A16811F0010100D001211648806810F02A
:103A5800010000D0012001430CBF01210021D9B190
:103A6800906811490140916000200DE01049896873
:103A780011F0010100D0012181F00101EFE75A6D39
:103A880042F020025A650120002283F850201AB023
:103A980030BC70470020F7E70020F5E702207047A8
:103AA8000020024000210240E0F0FFFF00630258BE
:103AB80000600258002800F0398338B504460368CE
:103AC80013F0010F25D0944A136903F03803926A62
:103AD800102B15D0182B0FD06368B3F5803F3FD05B
:103AE800002B53D18C4B1A6822F480321A601A6862
:103AF80022F480221A6038E002F00302022AEBD195
:103B0800854B1B6813F4003F03D06368002B00F05B
:103B18000F83236813F0020F00F0A1807E4A136917
:103B2800926A13F038035AD0182B55D0E368002B4B
:103B380000F0DE8078490A6822F0190213430B600E
:103B480003F010FB0546744B1B6813F0040F40F09C
:103B5800AD8003F007FB401B0228F4D90320EEE2F6
:103B68006D4A136843F48033136063682BB303F022
:103B7800F9FA0546684B1B6813F4003FC9D103F0F6
:103B8800F1FA401B6428F5D90320D8E2B3F5A02F39
:103B980009D0614B1A6822F480321A601A6822F43C
:103BA80080221A60E1E75C4B1A6842F480221A60AE
:103BB8001A6842F480321A60D7E703F0D3FA054650
:103BC800554B1B6813F4003FA3D003F0CBFA401BFE
:103BD8006428F5D90320B2E212F0030FA6D14E4BA8
:103BE8001B6813F0040F03D0E368002B00F0A282D7
:103BF800494A136823F01903E1680B43136003F083
:103C0800B1FA0546444B1B6813F0040F06D103F0C4
:103C1800A9FA401B0228F5D9032090E203F0BCFA68
:103C280041F20303984212D82269402A07D03A4940
:103C38004B6823F47C3343EA02334B600FE0364A87
:103C4800536823F47C3343F40033536007E0324A6B
:103C5800536823F0FE43216943EA016353602368F4
:103C680013F0100F00F088802B4A136903F0380313
:103C7800926A082B56D0182B50D0E369002B00F01D
:103C8800B880254A136843F08003136003F06AFA8A
:103C98000546214B1B6813F4807F40F0888003F0B1
:103CA80061FA401B0228F4D9032048E203F074FAB1
:103CB80041F20303984212D82269402A07D01649D4
:103CC8004B6823F47C3343EA02334B60C7E7124A5C
:103CD800536823F47C3343F400335360BFE70E4A40
:103CE800536823F0FE43216943EA01635360B6E752
:103CF800094A136823F00103136003F033FA0546F9
:103D0800054B1B6813F0040FA9D003F02BFA401BD6
:103D18000228F5D9032012E20044025802F00302F7
:103D2800012AAAD1A14B1B6813F4807F03D0E36951
:103D3800802B40F0018203F02FFA41F203039842EE
:103D480012D8226A202A07D098494B6823F0F843F2
:103D580043EA82634B600FE0944A536823F0F843C8
:103D680043F08043536007E0904AD36823F07C53C4
:103D7800216A43EA0163D360236813F0080F60D017
:103D88006369002B49D0894A536F43F00103536795
:103D980003F0E8F90546854B5B6F13F0020F50D12D
:103DA80003F0E0F9401B0228F5D90320C7E103F02E
:103DB800F3F941F20303984212D8226A202A07D065
:103DC8007A494B6823F0F84343EA82634B60D3E7B0
:103DD800764A536823F0F84343F080435360CBE7B7
:103DE800724AD36823F07C53216A43EA0163D360A3
:103DF800C2E76E4A136823F08003136003F0B2F938
:103E080005466A4B1B6813F4807FB5D003F0AAF906
:103E1800401B0228F5D9032091E1644A536F23F02F
:103E28000103536703F09EF90546604B5B6F13F07F
:103E3800020F06D003F096F9401B0228F5D903209B
:103E48007DE1236813F0200F29D0A3699BB1574A5D
:103E5800136843F48053136003F084F90546534B09
:103E68001B6813F4005F1AD103F07CF9401B022889
:103E7800F5D9032063E14D4A136823F48053136096
:103E880003F070F90546494B1B6813F4005F06D030
:103E980003F068F9401B0228F5D903204FE1236895
:103EA80013F0040F21D1636A002B00F047813F4AC9
:103EB800126902F03802182A00F0EE80022B79D03D
:103EC8003A4A136823F08073136003F04BF90446F1
:103ED800364B1B6813F0007F00F0DC8003F042F9DA
:103EE800001B0228F4D9032029E1314A136843F45E
:103EF8008073136003F036F905462D4B1B6813F4E5
:103F0800807F06D103F02EF9401B6428F5D90320E1
:103F180015E1A368012B0AD00BBB244B1A6F22F0C2
:103F280001021A671A6F22F004021A6704E01F4A96
:103F3800136F43F001031367A36833B303F012F957
:103F480005461A4B1B6F13F0020FACD103F00AF9A8
:103F5800401B41F288339842F3D90320EFE0052B48
:103F680009D0124B1A6F22F001021A671A6F22F059
:103F780004021A67E0E70D4B1A6F42F004021A6751
:103F88001A6F42F001021A67D6E703F0EBF805460C
:103F9800064B1B6F13F0020F85D003F0E3F8401BAC
:103FA80041F288339842F3D90320C8E0004402580C
:103FB80000480258694A136823F08073136003F0BD
:103FC800D1F80546654B1B6813F0007F06D003F057
:103FD800C9F8401B0228F5D90320B0E05F4B996A65
:103FE8005F4A0A40A16AE06A41EA00110A439A62FC
:103FF800226B013AC2F30802616B0139490289B2A6
:104008000A43A16B0139090401F4FE010A43E16B7B
:104018000139090601F0FE410A431A63DA6A22F0FF
:104028000102DA62596B4F4A0A40A16C42EAC102A6
:104038005A63DA6A22F00C02216C0A43DA62DA6AFD
:1040480022F00202616C0A43DA62DA6A42F48032D0
:10405800DA62DA6A42F40032DA62DA6A42F4802218
:10406800DA62DA6A42F00102DA621A6842F08072B1
:104078001A6003F077F80446384B1B6813F0007F8A
:1040880006D103F06FF8001B0228F5D9032056E08B
:10409800002054E0002052E0304A916A106B012B56
:1040A8004ED001F00303A26A93424BD1C1F305112C
:1040B800E36A994248D1C0F30802236B013B9A4254
:1040C80044D1C0F34622636B013B9A4240D1C0F30E
:1040D8000642A36B013B9A423CD1C0F30660E36BF6
:1040E800013B984238D11D4B5B6BC3F3CC03A26CE8
:1040F8009A4201D1002022E0184AD36A23F0010332
:10410800D36203F02FF8054603F02CF8A842FBD041
:10411800124A516B134B0B40A16C43EAC103536322
:10412800D36A43F00103D362002008E001207047FE
:10413800012004E0012002E0012000E0002038BD59
:104148000120FCE70120FAE70120F8E70120F6E763
:104158000120F4E70120F2E70120F0E700440258CB
:104168000CFCFFFF0700FFFF744B1B6903F03803CB
:10417800102B00F0DE80182B10D00BB17048704760
:104188006E4B1B6813F0200F00F0D5806B4B18683E
:10419800C0F3C1006B4B23FA00F0704710B4674AB4
:1041A800916A01F00301946AC4F30510D36A03F01D
:1041B800010C536BC3F3CC030CFB03F307EE903AEB
:1041C800F8EE677A14F47C7F00F09380012965D0BB
:1041D800022900F09180E1B107EE100AF8EE476A73
:1041E8009FED596A86EE267A544B1B6BC3F308037E
:1041F80006EE903AF8EE666A9FED546A67EE867AA4
:1042080076EEA77AF7EE006A77EEA67A27EE277A97
:1042180060E0136813F0200F23D011461268C2F330
:10422800C102484BD34007EE103AF8EE476A07EE52
:10423800100AB8EE476A86EE867A0B6BC3F308035A
:1042480006EE903AF8EE666A9FED406A67EE867A67
:1042580076EEA77AF7EE006A77EEA67A27EE277A47
:1042680038E007EE100AF8EE476A9FED396A86EEE5
:10427800267A324B1B6BC3F3080306EE903AF8EE2E
:10428800666A9FED326A67EE867A76EEA77AF7EE6F
:10429800006A77EEA67A27EE277A1BE007EE100A67
:1042A800F8EE476A9FED286A86EE267A234B1B6B49
:1042B800C3F3080306EE903AF8EE666A9FED236AA8
:1042C80067EE867A76EEA77AF7EE006A77EEA67A38
:1042D80027EE277A194B1B6BC3F34623013307EEEE
:1042E800903AF8EE677AC7EE276AFCEEE67A17EEA0
:1042F800900A5DF8044B704707EE100AF8EE476A1B
:104308009FED146A86EE267A0C4B1B6BC3F30803E9
:1043180006EE903AF8EE666A9FED0C6A67EE867ACA
:1043280076EEA77AF7EE006A77EEA67A27EE277A76
:10433800D0E7094870470348704700BF0044025857
:1043480000093D000090D0030024744A00000039A1
:104358000024744C0024744B0024F400002800F05E
:10436800328170B50D4604469B4B1B6803F00F0362
:104378008B420BD2984A136823F00F030B43136048
:10438800136803F00F038B4240F01F81236813F07A
:10439800040F0CD02269914B9B6903F070039A4279
:1043A80005D98E498B6923F070031A438A61236803
:1043B80013F0080F0CD06269884BDB6903F07003B7
:1043C8009A4205D98549CB6923F070031A43CA611B
:1043D800236813F0100F0CD0A269804BDB6903F43B
:1043E800E0639A4205D97D49CB6923F4E0631A4317
:1043F800CA61236813F0200F0CD0E269774B1B6A5F
:1044080003F070039A4205D974490B6A23F07003CC
:104418001A430A62236813F0020F0CD0E2686F4B4C
:104428009B6903F00F039A4205D96C498B6923F005
:104438000F031A438A61236813F0010F41D0674ABA
:10444800936923F47063A1680B4393616368022B3B
:104458000AD0032B27D0012B2CD0604A126812F007
:10446800040F06D10120ADE0126812F4003F00F0FD
:10447800AE805A490A6922F0070213430B6102F021
:1044880071FE0646554B1B6903F038036268B3EBAF
:10449800C20F16D002F066FE801B41F288339842A4
:1044A800F0D903208EE04D4A126812F0007FE0D167
:1044B800012087E0494A126812F4807FD9D101208F
:1044C80080E0236813F0020F0CD0E268434B9B692D
:1044D80003F00F039A4205D240498B6923F00F037A
:1044E8001A438A613C4B1B6803F00F03AB420AD99D
:1044F800394A136823F00F032B431360136803F042
:104508000F03AB4265D1236813F0040F0CD0226966
:10451800324B9B6903F070039A4205D22F498B698D
:1045280023F070031A438A61236813F0080F0CD034
:1045380062692A4BDB6903F070039A4205D2274966
:10454800CB6923F070031A43CA61236813F0100F74
:104558000CD0A269214BDB6903F4E0639A4205D2CF
:104568001E49CB6923F4E0631A43CA61236813F038
:10457800200F0CD0E269194B1B6A03F070039A42B2
:1045880005D216490B6A23F070031A430A62FFF733
:10459800EBFD12498B69C3F30323114AD35C03F083
:1045A8001F03D8408B6903F00F03D35C03F01F038C
:1045B80020FA03F30B4A13600B4B18600B4B186877
:1045C80002F06EFD70BD012070470120FAE701205E
:1045D800F8E70120F6E700BF002000520044025827
:1045E80094A300080C00002008000020040000200C
:1045F80008B5FFF7B9FD0B4A9369C3F303230A49CA
:10460800CB5C03F01F0320FA03F3926902F00F0258
:10461800885C00F01F0023FA00F0044A1060044A86
:10462800136008BD0044025894A300080C00002041
:104638000800002008B5FFF7DBFF054BDB69C3F373
:104648000213044AD35C03F01F03D84008BD00BF1F
:104658000044025894A3000808B5FFF7C9FF054BAA
:10466800DB69C3F30223044AD35C03F01F03D84079
:1046780008BD00BF0044025894A30008404B9B6A41
:1046880003F00303032B79D070B505460E463C4A68
:10469800136823F08063136002F064FD0446384B0E
:1046A8001B6813F0006F06D002F05CFD031B022BA1
:1046B800F5D9032070BD324B9A6A22F47C322968FE
:1046C80042EA01329A626A68013AC2F30802A968AA
:1046D8000139490289B20A43E9680139090401F438
:1046E800FE010A4329690139090601F0FE410A431E
:1046F8009A63DA6A22F0C00269690A43DA62DA6AFE
:1047080022F02002A9690A43DA62DA6A22F010026A
:10471800DA62D96B1B4A0A40E96942EAC102DA63E4
:10472800DA6A42F01002DA62C6B91A46DB6A43F462
:104738000023D362124A136843F08063136002F0C7
:1047480011FD04460E4B1B6813F0006F14D102F0E4
:1047580009FD001B0228F5D90320ABE7012E05D07F
:10476800074AD36A43F40013D362E3E7044AD36ADF
:1047780043F48013D362DDE700209BE701207047F4
:10478800004402580700FFFF404B9B6A03F00303F5
:10479800032B79D070B505460E463C4A136823F0C2
:1047A8008053136002F0DEFC0446384B1B6813F09C
:1047B800005F06D002F0D6FC031B022BF5D90320BC
:1047C80070BD324B9A6A22F07C72296842EA015223
:1047D8009A626A68013AC2F30802A9680139490273
:1047E80089B20A43E9680139090401F4FE010A4360
:1047F80029690139090601F0FE410A431A64DA6A97
:1048080022F4406269690A43DA62DA6A22F40072C1
:10481800A9690A43DA62DA6A22F48072DA62596CA8
:104828001B4A0A40E96942EAC1025A64DA6A42F458
:104838008072DA62C6B91A46DB6A43F48003D3622F
:10484800124A136843F08053136002F08BFC04464D
:104858000E4B1B6813F0005F14D102F083FC001BA1
:104868000228F5D90320ABE7012E05D0074AD36A01
:1048780043F08073D362E3E7044AD36A43F4000346
:10488800D362DDE700209BE701207047004402580F
:104898000700FFFFF8B50446036813F0006F30D037
:1048A800836EB3F5001F26D00ED8EBB1B3F5801F89
:1048B80007D102210830FFF7E1FE054645B12E4633
:1048C80021E0012635461EE0B3F5401F09D1002539
:1048D800984A136D23F44013A16E0B431365002609
:1048E80011E0012635460EE0924AD36A43F40033BC
:1048F800D3620025ECE702212830FFF745FF054683
:10490800DCE700263546236813F4807F14D0A36DB6
:10491800042B32D8DFE803F003232A080800854A6D
:10492800D36A43F40033D36255BB824A136D23F034
:104938000703A16D0B431365236813F4007F31D07F
:10494800E36D802B4CD020D8002B43D0402B19D1BD
:10495800002104F10800FFF791FE05461AE0002146
:1049680004F10800FFF78AFE0546DDE7002104F19F
:104978002800FFF709FF0546D6E701263546DBE79D
:104988002E46D9E7012635460CE0C02B02D0B3F5F8
:10499800807F1CD15DBB674A136D23F4E073E16D22
:1049A8000B431365236813F4806F46D0D4F8A830FE
:1049B800B3F5800F39D01FD88BB3B3F5001F18D1CA
:1049C800002104F10800FFF759FE05461AE0012608
:1049D8003546E7E7574AD36A43F40033D362D9E749
:1049E800002104F12800FFF7CFFE0546D2E72E4646
:1049F800D8E70126354620E0B3F5C00F02D0B3F55D
:104A0800000F09D1C5B94B4A936D23F46003D4F85C
:104A1800A8100B43936510E0012635460DE0454A82
:104A2800D36A43F40033D362ECE7002104F1280091
:104A3800FFF7AAFE0546E5E72E46236813F4006F44
:104A480024D0D4F8AC30B3F1007F42D00ED8002B7C
:104A580039D0B3F1807F06D1002104F10800FFF7B7
:104A68000DFE054608E0012635460FE0B3F1407F0C
:104A780002D0B3F1806F23D1002D31D12D4A936D2F
:104A880023F0E063D4F8AC100B439365236813F06C
:104A9800007F2ED0E36C202B40D026D833B1102BCA
:104AA80020D1244AD36A43F40033D362002D3CD189
:104AB800204AD36C23F03003E16C0B43D36418E035
:104AC80001263546E2E71B4AD36A43F40033D36232
:104AD800D2E7002104F12800FFF756FE0546CBE790
:104AE8002E46D3E70126354603E0302BDED00126DB
:104AF8003546236813F4805F2DD0236EB3F5005F2D
:104B08004FD019D8002B46D0B3F5805F0FD10021C4
:104B180004F10800FFF7B2FD054613E0022104F195
:104B28000800FFF7ABFD0546C0E72E46E1E7012682
:104B3800354610E000440258B3F5405F02D0B3F5A3
:104B4800804F25D1002D33D1774A136D23F4E043EC
:104B5800216E0B431365236813F4005F38D0636E2E
:104B6800B3F5003F53D028D843B1B3F5803F21D1E6
:104B7800012104F10800FFF781FD0546002D4DD104
:104B8800694A136D23F4E023616E0B4313651FE03C
:104B980001263546DFE7644AD36A43F40033D3621B
:104BA800D0E7002104F12800FFF7EEFD0546C9E72C
:104BB8002E46D0E7012635460AE0B3F5802FDDD032
:104BC800B3F5A02FDAD0B3F5403FD7D0012635464C
:104BD800236813F4804F31D0D4F8B030B3F1005FBC
:104BE80045D020D843B1B3F1805F19D1012104F138
:104BF8000800FFF743FD0546002D3FD14A4A936D53
:104C080023F0E043D4F8B0100B43936516E001217C
:104C180004F12800FFF7B8FD0546AFE72E46D7E7B1
:104C2800012635460AE0B3F1804FE5D0B3F1A04F35
:104C3800E2D0B3F1405FDFD001263546236813F494
:104C4800004F09D0236FB3F1805F19D0B3F1005F33
:104C580024D0D3B101263546236813F0807F33D0A2
:104C6800A36C032B5BD8DFE803F02722532701212D
:104C780004F12800FFF788FD0546BDE72E46DDE76D
:104C8800294AD36A43F40033D36275B9264A136DAF
:104C980023F04053216F0B431365DDE7012104F135
:104CA8000800FFF7EBFC0546EFE72E46D4E71E4A5F
:104CB800D36A43F40033D362A5BB1B4AD36C23F0F9
:104CC8000303A16C0B43D364236813F4800F2DD125
:104CD800236813F0010F00F0A580E36F282B00F282
:104CE8009F80DFE803F08D9D9D9D9D9D9D9D879DE7
:104CF8009D9D9D9D9D9D969D9D9D9D9D9D9D8D9DF3
:104D08009D9D9D9D9D9D8D9D9D9D9D9D9D9D8D0088
:104D1800022104F10800FFF7B1FC0546CCE70126A3
:104D28003546D1E72E46CFE700440258914A13682A
:104D380043F48073136002F015FA07468D4B1B6825
:104D480013F4807F05D102F00DFAC01B6428F5D951
:104D58000325002D4AD1884B1B6FD4F8B42053404B
:104D680013F4407F0CD0844B1A6F22F44072196FF1
:104D780041F480311967196F21F4803119671A6776
:104D8800D4F8B430B3F5807F15D08DBBD4F8B430E7
:104D980003F44072B2F5407F1ED0774A136923F4BA
:104DA8007C53136174490B6FD4F8B420C2F30B021F
:104DB80013430B678CE702F0D5F907466E4B1B6F60
:104DC80013F0020FE1D102F0CDF9C01B41F2883394
:104DD8009842F3D90325D8E76748026922F47C5240
:104DE800664901EA131313430361DBE72E466FE7B5
:104DF8002E466DE7012104F10800FFF73FFC054648
:104E0800E5B95D4A536D23F03803E16F0B435365F1
:104E180008E0012104F12800FFF7B6FC0546EFE79A
:104E280001263546236813F0020F17D0A36F052B10
:104E380028D8DFE803F00B05200B0B0B2E46F1E713
:104E4800012104F10800FFF719FC0546EDB94A4AAB
:104E5800536D23F00703A16F0B435365236813F0C9
:104E6800040F23D0D4F89430052B45D8DFE803F09D
:104E7800150F3D151515012104F12800FFF784FCD5
:104E88000546E3E701263546E8E72E46E6E7012131
:104E980004F10800FFF7F2FB054685BB364A936D1F
:104EA80023F00703D4F894100B439365236813F099
:104EB800200F34D0D4F89030B3F1005F4ED023D80F
:104EC80043B1B3F1805F1CD1002104F10800FFF762
:104ED800D5FB0546002D48D1274A536D23F0E04302
:104EE800D4F890100B43536519E0012104F1280010
:104EF800FFF74AFC0546D0E701263546D6E72E4699
:104F0800D4E7012635460AE0B3F1804FE2D0B3F189
:104F1800A04FDFD0B3F1405FDCD0012635462368CF
:104F280013F0400F37D0D4F89C30B3F5006F53D04E
:104F380026D843B1B3F5806F19D1002104F10800D8
:104F4800FFF79CFB0546002D4DD10B4A936D23F4CA
:104F5800E053D4F89C100B4393651CE0022104F144
:104F68002800FFF711FC0546B4E72E46D7E70126CF
:104F7800354610E00048025800440258CFFFFF00B1
:104F8800B3F5805FDFD0B3F5A05FDCD0B3F5406F39
:104F9800D9D001263546236813F0800F33D0D4F8D2
:104FA800A030B3F5804F00F0A38021D843B1B3F50A
:104FB800005F1AD1002104F10800FFF75FFB0546E6
:104FC800002D40F09C80814A936D23F46043D4F80F
:104FD800A0100B43936516E0022104F12800FFF7A7
:104FE800D3FB0546AFE72E46D5E7012635460AE04E
:104FF800B3F5004FE4D0B3F5204FE1D0B3F5C04F7F
:10500800DED001263546236813F0080F0CD0D4F8FB
:105018008430B3F5805F74D06C4A536D23F44053E9
:10502800D4F884100B435365236813F0100F0CD089
:10503800D4F89830B3F5807F6CD0644A936D23F42C
:105048004073D4F898100B439365236813F4002F2A
:105058000BD0D4F8A430B3F5803F74D0B3F5003F3B
:1050680067D0002B5FD001263546236813F4802FC4
:105078000CD0D4F88830B3F5001F7CD0B3F5401FAE
:105088006FD0B3F5801F67D001263546236813F427
:10509800803F08D0236D002B76D0B3F5803F00F019
:1050A800818001263546236813F0005F40F0838035
:1050B800236813F4003F00F08E80D4F88030B3F5F5
:1050C800807F00F0EC8040F28380B3F5007F03D04E
:1050D800B3F5407F40F0E180002D40F0E6803B4A88
:1050E800536D23F44073D4F880100B43536572E07A
:1050F800022104F12800FFF747FB054660E72E462A
:1051080081E7022104F12800FFF73EFB002883D045
:10511800012681E7022104F12800FFF735FB00286A
:105128008BD0012689E7002104F10800FFF7A6FAD1
:1051380005467DB9254A936D23F44033D4F8A4106D
:105148000B43936591E7022104F12800FFF71CFB4C
:105158000546EEE72E4688E71C4AD36A43F4003337
:10516800D3627DB9194A536D23F44013D4F88810DB
:105178000B4353658AE7012104F12800FFF704FB7C
:105188000546EEE72E4681E7104AD36A43F400331A
:10519800D36275B90D4AD36C23F48033216D0B4368
:1051A800D36480E7022104F10800FFF767FA054697
:1051B800EFE72E4677E7022104F12800FFF7E4FA2B
:1051C80000283FF475AF012672E700BF004402587B
:1051D800002B81D00126236813F4801F06D04F4A84
:1051E800136D23F00043616F0B431365236813F0BD
:1051F800805F07D0494A136923F48043D4F8B81074
:105208000B431361236813F4001F06D0434A136D40
:1052180023F08073E16E0B431365236813F0804F0E
:1052280009D03E4B1A6922F400421A611A69D4F86F
:10523800BC100A431A612368002B06DA374AD36C7C
:1052480023F04053616D0B43D364236813F4000FBC
:1052580007D0324A536D23F44003D4F88C100B4323
:105268005365636813F0010F21D1636813F0020FCF
:1052780026D1636813F0040F2BD1636813F0080F6D
:1052880030D1636813F0100F35D1636813F0200F25
:105298003AD106B101263046F8BD01269BE71F4AE0
:1052A800D36A43F40033D36216E72E4693E700210E
:1052B80004F10800FFF7E2F90028D6D00646D4E743
:1052C800012104F10800FFF7D9F90028D1D00646DA
:1052D800CFE7022104F10800FFF7D0F90028CCD06D
:1052E8000646CAE7002104F12800FFF74DFA002816
:1052F800C7D00646C5E7012104F12800FFF744FAA4
:105308000028C2D00646C0E7022104F12800FFF7B2
:105318003BFA0028BDD00646BBE700BF0044025850
:1053280008B5FFF765F9054B1B6AC3F30213044A76
:10533800D35C03F01F03D84008BD00BF00440258E7
:1053480094A3000810B5774A916A946AC4F3053E9D
:10535800D36AC3F3001CD36BC3F3CC030CFB03F376
:1053680014F47C3F00F0D88001F0030107EE903A76
:10537800F8EE677A012965D0022900F0B080E1B122
:1053880007EE10EAB8EE477A9FED676AC6EE076A3D
:10539800644B9B6BC3F3080307EE103AB8EE477AE9
:1053A8009FED626A67EE867A77EE277AB7EE007A23
:1053B80077EE877A66EEA76A60E0136813F0200F2D
:1053C80023D011461268C2F3C102594BD34007EEED
:1053D800103AB8EE477A06EE90EAB8EE666AC7EE7B
:1053E800066A8B6BC3F3080307EE103AB8EE477AE8
:1053F8009FED4E6A67EE867A77EE277AB7EE007AE7
:1054080077EE877A66EEA76A38E007EE10EAB8EE1C
:10541800477A9FED486AC6EE076A424B9B6BC3F317
:10542800080307EE103AB8EE477A9FED406A67EE38
:10543800867A77EE277AB7EE007A77EE877A66EE85
:10544800A76A1BE007EE10EAB8EE477A9FED366AC6
:10545800C6EE076A334B9B6BC3F3080307EE103A9B
:10546800B8EE477A9FED316A67EE867A77EE277A4B
:10547800B7EE007A77EE877A66EEA76A294A936BC9
:10548800C3F3462307EE103AB8EE477AB7EE006A40
:1054980037EE067AC6EE877AFCEEE77AC0ED007A38
:1054A800936BC3F3064307EE103AB8EE477A37EE2C
:1054B800067AC6EE877AFCEEE77AC0ED017A936B3E
:1054C800C3F3066307EE903AF8EE677A77EE867ACA
:1054D80086EEA77ABCEEC77A80ED027A10BD07EE99
:1054E80010EAB8EE477A9FED146AC6EE076A0D4BCC
:1054F8009B6BC3F3080307EE103AB8EE477A9FEDAB
:105508000B6A67EE867A77EE277AB7EE007A77EE3F
:10551800877A66EEA76AB1E7002303604360836079
:10552800DCE700BF004402580024744A0000003938
:105538000090D0030024744C0024744B10B5774AB3
:10554800916A946AC4F3055ED36AC3F3002C536C62
:10555800C3F3CC030CFB03F314F07C7F00F0D8807A
:1055680001F0030107EE903AF8EE677A012965D059
:10557800022900F0B080E1B107EE10EAB8EE477AF0
:105588009FED676AC6EE076A644B1B6CC3F308039A
:1055980007EE103AB8EE477A9FED626A67EE867AB0
:1055A80077EE277AB7EE007A77EE877A66EEA76A03
:1055B80060E0136813F0200F23D011461268C2F37D
:1055C800C102594BD34007EE103AB8EE477A06EEBF
:1055D80090EAB8EE666AC7EE066A0B6CC3F3080376
:1055E80007EE103AB8EE477A9FED4E6A67EE867A74
:1055F80077EE277AB7EE007A77EE877A66EEA76AB3
:1056080038E007EE10EAB8EE477A9FED486AC6EE32
:10561800076A424B1B6CC3F3080307EE103AB8EE57
:10562800477A9FED406A67EE867A77EE277AB7EE7B
:10563800007A77EE877A66EEA76A1BE007EE10EA33
:10564800B8EE477A9FED366AC6EE076A334B1B6C95
:10565800C3F3080307EE103AB8EE477A9FED316AB4
:1056680067EE867A77EE277AB7EE007A77EE877A52
:1056780066EEA76A294A136CC3F3462307EE103A6D
:10568800B8EE477AB7EE006A37EE067AC6EE877A42
:10569800FCEEE77AC0ED007A136CC3F3064307EE1D
:1056A800103AB8EE477A37EE067AC6EE877AFCEEFD
:1056B800E77AC0ED017A136CC3F3066307EE903AFC
:1056C800F8EE677A77EE867A86EEA77ABCEEC77A26
:1056D80080ED027A10BD07EE10EAB8EE477A9FED2A
:1056E800146AC6EE076A0D4B1B6CC3F3080307EE7A
:1056F800103AB8EE477A9FED0B6A67EE867A77EE36
:10570800277AB7EE007A77EE877A66EEA76AB1E76E
:105718000023036043608360DCE700BF0044025855
:105728000024744A000000390090D0030024744C0F
:105738000024744B10B5774A916A946AC4F3051E25
:10574800D36A03F0010C536BC3F3CC030CFB03F3D4
:1057580014F47C7F00F0D88001F0030107EE903A42
:10576800F8EE677A012965D0022900F0B080E1B12E
:1057780007EE10EAB8EE477A9FED676AC6EE076A49
:10578800644B1B6BC3F3080307EE103AB8EE477A75
:105798009FED626A67EE867A77EE277AB7EE007A2F
:1057A80077EE877A66EEA76A60E0136813F0200F39
:1057B80023D011461268C2F3C102594BD34007EEF9
:1057C800103AB8EE477A06EE90EAB8EE666AC7EE87
:1057D800066A0B6BC3F3080307EE103AB8EE477A74
:1057E8009FED4E6A67EE867A77EE277AB7EE007AF3
:1057F80077EE877A66EEA76A38E007EE10EAB8EE29
:10580800477A9FED456AC6EE076A424B1B6BC3F3A6
:10581800080307EE103AB8EE477A9FED406A67EE44
:10582800867A77EE277AB7EE007A77EE877A66EE91
:10583800A76A1BE007EE10EAB8EE477A9FED396ACF
:10584800C6EE076A334B1B6BC3F3080307EE103A27
:10585800B8EE477A9FED316A67EE867A77EE277A57
:10586800B7EE007A77EE877A66EEA76A294A136B55
:10587800C3F3462307EE103AB8EE477AB7EE006A4C
:1058880037EE067AC6EE877AFCEEE77AC0ED007A44
:10589800136BC3F3064307EE103AB8EE477A37EEB8
:1058A800067AC6EE877AFCEEE77AC0ED017A136BCA
:1058B800C3F3066307EE903AF8EE677A77EE867AD6
:1058C80086EEA77ABCEEC77A80ED027A10BD07EEA5
:1058D80010EAB8EE477A9FED146AC6EE076A0D4BD8
:1058E8001B6BC3F3080307EE103AB8EE477A9FED37
:1058F8000B6A67EE867A77EE277AB7EE007A77EE4C
:10590800877A66EEA76AB1E7002303604360836085
:10591800DCE700BF004402580024744C0000003942
:105928000090D0030024744A0024744B00B58BB057
:10593800A0F580730B432ED0A0F500730B437ED0E7
:10594800A0F580630B4300F0D480A0F500630B43FF
:1059580000F02C81A0F580530B4300F08B81A0F55B
:1059680000530B4300F0E381A0F500230B4300F044
:105978002C82A0F580330B4300F06F82A0F58043A2
:105988000B4300F09082A0F5004050EA010300F0BC
:10599800D382002001E3954B1B6D03F00703042B12
:1059A80000F2F282DFE803F005101B03260090489E
:1059B800F3E28E4B186810F0007000F0EE8207A832
:1059C800FFF7B8FE0898E8E2884B186810F0006006
:1059D80000F0E38204A8FFF7B5FC0498DDE2834BEE
:1059E800186810F0005000F0D88201A8FFF7A6FD53
:1059F8000198D2E27D4AD36C03F04053126812F04A
:105A0800040F07D033B9794B1B68C3F3C103794836
:105A1800D840C2E2754A126812F4807F03D0B3F10D
:105A2800805F00F0B382714A126812F4003F00F000
:105A3800AF82B3F1005F00F0AD820020ADE26B4BA6
:105A48001B6D03F4E073802B33D015D9C02B00F005
:105A5800A382B3F5807F1FD1644AD36C03F040530F
:105A6800126812F0040F2FD073BB604B1B68C3F38E
:105A7800C1036048D84090E283B1402B0AD15B4B08
:105A8800186810F0006000F0888204A8FFF75AFC3C
:105A9800049882E2002080E200207EE2534B1868DE
:105AA80010F0007000F0798207A8FFF743FE08980D
:105AB80073E24E4B186810F0005000F06E8201A897
:105AC800FFF73CFD019868E2484A126812F4807FAB
